:100000000C9463000C948B000C948B000C948B006C
:100010000C948B000C948B000C948B000C94730547
:100020000C948B000C948B000C948B000C948B0024
:100030000C948B000C948B000C948B000C948B0014
:100040000C9429050C948B000C94F5050C94CF05A9
:100050000C948B000C948B000C948B000C948B00F4
:100060000C948B000C948B000000000024002700EF
:100070002A0000000008000201000003040700003D
:1000800000000000000000000000230026002900FE
:10009000010204081020408001020408102001021F
:1000A0000408102000000000250028002B00040494
:1000B0000404040404040202020202020303030310
:1000C00003030200320811241FBECFEFD8E0DEBFC9
:1000D000CDBF11E0A0E0B1E0E6ECF3E102C0059095
:1000E0000D92A235B107D9F722E0A2E5B1E001C037
:1000F0001D92A930B207E1F710E0C3E6D0E004C0DA
:100100002197FE010E94D609C236D107C9F70E9485
:100110006C060C94E1090C94000090E0FC01EE5890
:10012000FF4F2491FC01E057FF4F3491FC01E25551
:10013000FF4FE491EE2309F43CC0222339F1233030
:1001400091F038F42130A9F0223001F584B58F7D8B
:1001500012C0273091F02830A1F02430B9F48091FA
:1001600080008F7D03C0809180008F778093800016
:100170000DC084B58F7784BD09C08091B0008F77A2
:1001800003C08091B0008F7D8093B000F0E0EE0F4F
:10019000FF1FEC55FF4FA591B4919FB7F8946111E3
:1001A00004C08C913095382302C0EC913E2B3C93D7
:1001B0009FBF0895CF93DF9390E0FC01E057FF4F7E
:1001C0002491FC01E255FF4F8491882361F190E076
:1001D000880F991FFC01E859FF4FC591D491FC018C
:1001E000EC55FF4FA591B491611109C09FB7F894E8
:1001F0008881209582238883EC912E230BC0623066
:1002000061F49FB7F8948881322F309583238883D7
:10021000EC912E2B2C939FBF06C08FB7F894E881EA
:100220002E2B28838FBFDF91CF9108958F929F92BD
:10023000AF92BF92CF92DF92EF92FF921F93CF9334
:10024000DF93EC0180910001873021F08F3F09F0AE
:10025000F1C104C0E2ECF0E014916FC087E080933C
:100260000001E2ECF0E014911F3F09F4E3C111300A
:1002700009F440C030F1123009F05FC01092B000B4
:100280001092B1008091B00082608093B0008091A4
:10029000B10081608093B100E5EBF0E0E491F0E023
:1002A000EE0FFF1FEC55FF4F8591949190935D01E8
:1002B00080935C01E7E9F0E0E491E0935B0112E0F8
:1002C000B4C114BC15BC84B5826084BD85B58160A1
:1002D00085BDE5EBF0E0E491F0E0EE0FFF1FEC559B
:1002E000FF4F85919491E7E9F0E0E491E0935F019D
:1002F00010E09BC1109280001092810080918100DB
:10030000886080938100809181008160809381006A
:10031000E5EBF0E0E491F0E0EE0FFF1FEC55FF4F4E
:1003200085919491E7E9F0E0E491E0935E0161E06A
:1003300087E00E94DA0011E0A5C017FD7BC161E0F3
:1003400087E00E94DA00812F8D7F09F09BC06E014B
:10035000E12CF12C60E072E18AE790E0A7019601C0
:100360000E94B70949015A01BA01A9014150510936
:10037000610971094F3F51056105710509F008F4E4
:1003800045C060E472E48FE090E0A70196010E940E
:10039000B709BA01A9014150510961097109123027
:1003A000E9F44F3F51056105710509F008F4DDC01E
:1003B00060E970ED83E090E0A70196010E94B70923
:1003C000BA01A90141505109610971094F3F510515
:1003D0006105710509F020F583E04DC04F3F5105DF
:1003E00061057105A9F0A0F068E478EE81E090E085
:1003F000A70196010E94B709BA01A901415051090C
:1004000061097109112309F4E1C0D8C081E001C07C
:1004100082E0111130C095B5987F892B85BD69C0E8
:1004200068E478EE81E090E0A70196010E94B709A8
:10043000BA01A90141505109610971094F3F5105A4
:100440006105710509F008F48EC064E274EF80E084
:1004500090E0A70196010E94B709BA01A901415095
:100460005109610971094F3F51056105710511F08D
:1004700008F07DC085E09091B100987F892B809332
:10048000B10031C06E01E12CF12C60E072E18AE72D
:1004900090E0A70196010E94B709BA01A901415055
:1004A0005109610971094115510581E0680771051C
:1004B00080F068E478EE81E090E0A70196010E9468
:1004C000B709BA01A901415051096109710983E0D5
:1004D00001C081E0113039F490918100987F892B1F
:1004E0008093810018C01130B1F0123049F1111120
:1004F000A1C047BD8FEF9FEFDC018093680190930F
:100500006901A0936A01B0936B0180916E008260D3
:1005100080936E008FC050938900409388008FEFC6
:100520009FEFDC018093640190936501A0936601C5
:10053000B093670180916F00826080936F007AC0F2
:100540004093B3008FEF9FEFDC01809360019093A5
:100550006101A0936201B093630180917000826099
:100560008093700067C084E086CF82E084CF62E130
:100570007AE780E090E0A70196010E94B709BA01EE
:10058000A90141505109610971094F3F51056105A8
:10059000710591F088F0D501C4012AE0B595A795C1
:1005A000979587952A95D1F7AC01BD014150510926
:1005B0006109710987E05FCF86E05DCF4F3F51054C
:1005C0006105710509F098F684E023CF4F3F51058E
:1005D0006105710541F138F162E17AE780E090E070
:1005E000A70196010E94B709BA01A901415051091A
:1005F000610971094F3F51056105710591F088F05E
:10060000D501C4013AE0B595A795979587953A9598
:10061000D1F7AC01BD01415051096109710985E073
:10062000FACE84E0F8CE83E0F6CE61E087E00E9467
:10063000DA008DCEDF91CF911F91FF90EF90DF9088
:10064000CF90BF90AF909F908F9008953FB7F89450
:100650008091570190915801A0915901B0915A0190
:1006600026B5A89B05C02F3F19F00196A11DB11D0D
:100670003FBFBA2FA92F982F8827820F911DA11D48
:10068000B11DBC01CD0142E0660F771F881F991F85
:100690004A95D1F7089590910001891324C0E2ECA6
:1006A000F0E0E4919FEF90930001E130B9F098F011
:1006B000E230C9F4909170009D7F9093700091E0BA
:1006C0009093B0009091B100987F94609093B100A6
:1006D0001092B30008C010926E0005C090916F0098
:1006E0009D7F90936F0060E00C948D00CF92DF921D
:1006F000EF92FF920F931F93CF93DF936C017A01D8
:100700008B01C0E0D0E0CE15DF0581F0D8016D91FE
:100710008D01D601ED91FC910190F081E02DC60193
:100720000995892B11F02196EECF7E01C701DF914B
:10073000CF911F910F91FF90EF90DF90CF90089590
:10074000089580E090E00895FC01538D448D252F9D
:1007500030E0842F90E0821B930B541710F0CF965B
:10076000089501970895FC01918D828D981761F08D
:10077000828DDF01A80FB11D5D968C91928D9F5FD8
:100780009F73928F90E008958FEF9FEF0895FC0183
:10079000918D828D981731F0828DE80FF11D858D36
:1007A00090E008958FEF9FEF0895FC01918D228DC9
:1007B000892F90E0805C9F4F821B91098F7399274E
:1007C00008958CE691E00E94D50321E0892B09F47D
:1007D00020E0822F0895FC01848DDF01A80FB11D58
:1007E000A35ABF4F2C91848D90E001968F73992767
:1007F000848FA689B7892C93A089B1898C91837045
:1008000080648C93938D848D981306C00288F3893D
:10081000E02D80818F7D80830895EF92FF920F936A
:100820001F93CF93DF93EC0181E0888F9B8D8C8D9C
:10083000981305C0E889F989808185FD26C0F62EC8
:100840000B8D10E00F5F1F4F0F731127E02E8C8D63
:10085000E8120CC00FB607FCFACFE889F98980814D
:1008600085FFF5CFCE010E94EB03F1CF8B8DFE010A
:10087000E80FF11DE35AFF4FF0829FB7F8940B8FFA
:10088000EA89FB89808180620AC09FB7F894EE896B
:10089000FF896083E889F98980818370806480831F
:1008A0009FBF81E090E0DF91CF911F910F91FF906A
:1008B000EF900895CF93DF93EC01888D8823C9F0E2
:1008C000EA89FB89808185FD05C0A889B9898C9159
:1008D00086FD0FC00FB607FCF5CF808185FFF2CFF4
:1008E000A889B9898C9185FFEDCFCE010E94EB03D9
:1008F000E7CFDF91CF91089580E090E0892B29F038
:100900000E94E10381110C9400000895009769F0A2
:10091000FC0101900020E9F73197AF01481B590B0A
:10092000BC018CE691E00C94760380E090E00895A1
:10093000CF93DF930E948604EC0183E191E00E9453
:1009400086048C0F9D1FDF91CF9108958F929F9207
:10095000AF92BF92CF92DF92EF92FF920F931F93CD
:10096000CF93DF93CDB7DEB7A1970FB6F894DEBF74
:100970000FBECDBF6B017C016DE28CE691E00E9461
:100980000D048C0122273327A9012C193D094E099A
:100990005F0919A27E0181E2E80EF11C8AE0882E2F
:1009A000912CA12CB12CCA01B901A50194010E947E
:1009B0009509605DF70162937F01211531054105BD
:1009C000510589F7CF010E948604800F911FA196DF
:1009D0000FB6F894DEBF0FBECDBFDF91CF911F9150
:1009E0000F91FF90EF90DF90CF90BF90AF909F90CE
:1009F0008F9008950F931F9390E0FC01E057FF4FF5
:100A00006491FC01E255FF4FE491F0E0EE0FFF1F0F
:100A1000EA57FF4F8591949100E412E42FE030E013
:100A2000462F0E942706611571058105910549F041
:100A3000DC01CB010196A11DB11DBC01CD019F7050
:100A400003C060E070E0CB011F910F9108950E94F8
:100A5000DC091F920F920FB60F9211242F933F9330
:100A60008F939F93AF93BF938091530190915401C3
:100A7000A0915501B09156013091520123E0230F0E
:100A80002D3720F40196A11DB11D05C026E8230FC6
:100A90000296A11DB11D20935201809353019093A2
:100AA0005401A0935501B093560180915701909144
:100AB0005801A0915901B0915A010196A11DB11D93
:100AC0008093570190935801A0935901B0935A0114
:100AD000BF91AF919F918F913F912F910F900FBE3A
:100AE0000F901F9018951F920F920FB60F9211241E
:100AF0002F933F934F935F936F937F938F939F9326
:100B0000AF93BF93EF93FF93809160019091610148
:100B1000A0916201B0916301892B8A2B8B2B51F13B
:100B200090915B01E0915C01F0915D0180818927EA
:100B300080838091600190916101A0916201B091E8
:100B40006301181619061A061B06C4F48091600189
:100B500090916101A0916201B09163010197A10997
:100B6000B1098093600190936101A0936201B093F9
:100B7000630104C0809100010E944B03FF91EF913B
:100B8000BF91AF919F918F917F916F915F914F91A5
:100B90003F912F910F900FBE0F901F9018951F92AD
:100BA0000F920FB60F9211242F933F934F935F93A1
:100BB0006F937F938F939F93AF93BF93EF93FF9325
:100BC0008CE691E00E94EB03FF91EF91BF91AF9112
:100BD0009F918F917F916F915F914F913F912F9155
:100BE0000F900FBE0F901F9018951F920F920FB687
:100BF0000F9211242F938F939F93EF93FF93E09184
:100C00007C01F0917D018081E0918201F09183016E
:100C100082FD12C09081809185018F5F8F7320913A
:100C20008601821751F0E0918501F0E0E459FE4F12
:100C3000958F8093850101C08081FF91EF919F91F5
:100C40008F912F910F900FBE0F901F901895CF92FC
:100C5000DF92EF92FF920F931F93E82FF92F05C0B9
:100C6000015011092109310961F1908196239417EE
:100C7000B9F305C0015011092109310911F1908121
:100C800096239413F7CFC12CD12CE12CF12C0AC060
:100C90008FEFC81AD80AE80AF80A0C151D052E05A8
:100CA0003F0579F080818623841791F36C2D7D2D8B
:100CB0008E2D9F2D1F910F91FF90EF90DF90CF9081
:100CC000089560E070E080E090E01F910F91FF9048
:100CD000EF90DF90CF900895CF93DF93CDB7DEB73D
:100CE000A1970FB6F894DEBF0FBECDBF789484B540
:100CF000826084BD84B5816084BD85B5826085BD18
:100D000085B5816085BD80916E00816080936E00A5
:100D10001092810080918100826080938100809197
:100D20008100816080938100809180008160809348
:100D300080008091B10084608093B1008091B00008
:100D400081608093B00080917A00846080937A0003
:100D500080917A00826080937A0080917A0081602D
:100D600080937A0080917A00806880937A00109254
:100D7000C100E0917C01F0917D0182E08083E091EF
:100D80007801F09179011082E0917A01F0917B0174
:100D90008FEC808310928401E0918001F0918101B9
:100DA00086E08083E0917E01F0917F018081806107
:100DB0008083E0917E01F0917F0180818860808353
:100DC000E0917E01F0917F01808180688083E091D5
:100DD0007E01F0917F0180818F7D808361E08CE0D6
:100DE0000E94DA0060E08DE00E94DA0061E084E0B9
:100DF0000E94DA0060E085E00E94DA0061E087E0AE
:100E00000E94DA0093E2292E312C2AE0422E512C46
:100E1000612C712C60E08CE00E948D0083E090E0FA
:100E20000197F1F761E08CE00E948D00C10101970C
:100E3000F1F760E08CE00E948D008DE00E94FA04E2
:100E400022E030E040E050E00E94B709CA01B90159
:100E50000E9409092DEC3CEC48EE51E40E945F0829
:100E60000E94D1084B015C0160E08CE00E948D0083
:100E700060E084E00E948D0083E090E00197F1F74C
:100E800061E084E00E948D00C1010197F1F760E00C
:100E900084E00E948D0085E00E94FA0422E030E0A8
:100EA00040E050E00E94B709CA01B9010E94090957
:100EB0002DEC3CEC48EE51E40E945F080E94D10802
:100EC0006B017C0160E084E00E948D0026E48216C4
:100ED0009104A104B104ACF086E4C816D104E10485
:100EE000F1047CF486E191E00E94980488E291E0AC
:100EF0000E948604F7FE42C0C701B6010E94A60404
:100F000055C086E191E00E94980484E391E00E943C
:100F10008604B7FE05C0C501B4010E94A60418C02E
:100F2000A501940119A28E010F5D1F4FCA01B901DD
:100F3000A30192010E949509605DF80162938F01FF
:100F4000211531054105510589F7CF010E9486041D
:100F500061E087E00E948D0088EE93E00E94160118
:100F6000F6E48F169104A104B1040CF468C026E4E1
:100F7000C216D104E104F1040CF5B4CFA701960127
:100F800019A28E010F5D1F4FCA01B901A301920181
:100F90000E949509605DF80162938F01211531056A
:100FA0004105510589F7CF010E94860461E087E081
:100FB0000E948D0088E893E10E941601F7E48F16E5
:100FC0009104A104B1048CF0F7E4CF16D104E1043C
:100FD000F1045CF08FE391E00E94980460E087E008
:100FE0000E948D0087E00E944B030E9426034B0164
:100FF0005C0184EFC82EDD24D394E12CF12C0E94F7
:101000002603DC01CB0188199909AA09BB09883E8E
:101010009340A105B10598F321E0C21AD108E10877
:10102000F10888EE880E83E0981EA11CB11CC11443
:10103000D104E104F10419F70E947C04EBCE26E40C
:10104000C216D104E104F10484F682E491E00E9426
:10105000980461E087E00E948D0088E59BE10E9492
:101060001601C3CFECE6F1E01382128288EE93E022
:10107000A0E0B0E084839583A683B78385E091E008
:101080009183808385EC90E09587848784EC90E061
:101090009787868780EC90E0918B808B81EC90E045
:1010A000938B828B82EC90E0958B848B86EC90E026
:1010B000978B868B118E128E138E148E08950E943C
:1010C00073080C945B090E94540958F00E944D0962
:1010D00040F029F45F3F29F00C94440951110C941D
:1010E0008F090C944A090E946C0968F39923B1F3A3
:1010F000552391F3951B550BBB27AA27621773073E
:10110000840738F09F5F5F4F220F331F441FAA1FD1
:10111000A9F335D00E2E3AF0E0E832D0915050408D
:10112000E695001CCAF72BD0FE2F29D0660F771F3B
:10113000881FBB1F261737074807AB07B0E809F021
:10114000BB0B802DBF01FF2793585F4F3AF09E3FA6
:10115000510578F00C9444090C948F095F3FE4F337
:10116000983ED4F3869577956795B795F7959F5FE9
:10117000C9F7880F911D9695879597F90895E1E035
:10118000660F771F881FBB1F621773078407BA0794
:1011900020F0621B730B840BBA0BEE1F88F7E095EF
:1011A00008950E94D8086894B1110C948F0908958D
:1011B0000E94740988F09F5798F0B92F9927B7516A
:1011C000B0F0E1F0660F771F881F991F1AF0BA95EB
:1011D000C9F714C0B13091F00E948E09B1E00895B2
:1011E0000C948E09672F782F8827B85F39F0B93FA4
:1011F000CCF3869577956795B395D9F73EF490959E
:101200008095709561957F4F8F4F9F4F0895E8941B
:1012100009C097FB3EF490958095709561957F4F3E
:101220008F4F9F4F9923A9F0F92F96E9BB279395EC
:10123000F695879577956795B795F111F8CFFAF4FC
:10124000BB0F11F460FF1BC06F5F7F4F8F4F9F4F2D
:1012500016C0882311F096E911C0772321F09EE88B
:10126000872F762F05C0662371F096E8862F70E0F1
:1012700060E02AF09A95660F771F881FDAF7880FCB
:101280009695879597F9089597F99F6780E870E09C
:1012900060E008959FEF80EC089500240A941616EC
:1012A000170618060906089500240A941216130654
:1012B000140605060895092E0394000C11F48823E2
:1012C00052F0BB0F40F4BF2B11F460FF04C06F5FFE
:1012D0007F4F8F4F9F4F089557FD9058440F551FD4
:1012E00059F05F3F71F04795880F97FB991F61F0A8
:1012F0009F3F79F087950895121613061406551F1F
:10130000F2CF4695F1DF08C0161617061806991F8A
:10131000F1CF86957105610508940895E894BB277F
:1013200066277727CB0197F90895A1E21A2EAA1B09
:10133000BB1BFD010DC0AA1FBB1FEE1FFF1FA21785
:10134000B307E407F50720F0A21BB30BE40BF50B82
:10135000661F771F881F991F1A9469F7609570950B
:10136000809590959B01AC01BD01CF010895052E9C
:1013700097FB1EF400940E94CE0957FD07D00E94EF
:10138000950907FC03D04EF40C94CE095095409576
:10139000309521953F4F4F4F5F4F08959095809521
:1013A000709561957F4F8F4F9F4F0895EE0FFF1FF0
:1013B0000590F491E02D099481E090E0F8940C946C
:0613C000E109F894FFCFE3
:1013C600FF000000000D047603A4035A04D503B3FE
:1013D60003C7030D0A006F626A656374206465744F
:1013E6006563746564200A0064697374616E63657D
:1013F600313D200064697374616E63653D20006E43
:101406006F206F626A6563742064657465637465D2
:02141600640070
:00000001FF
